S01F00004F6E44656D616E642054726166666963206C69676874732E7372656375
S11300000C942A000C9475000C943C000C943C0055
S11300100C943C000C943C000C943C000C943C006C
S11300200C943C000C943C000C943C000C943C005C
S11300300C943C000C943C000C943C000C943C004C
S11300400C943C000C943C000C943C000C943C003C
S11300500C943C0011241FBECFE5D8E0DEBFCDBF19
S113006020E0A0E6B0E001C01D92A536B207E1F79A
S11300700E947C010C94FC020C94000062E081E478
S11300800E94810160E081E40E94810161E081E4D9
S11300900E94810160E082E40E94810161E082E4C7
S11300A00E94810162E082E40E94810160E081E4B7
S11300B00E948D0161E081E40E948D0162E081E48F
S11300C00E948D010E9498010E94A30108958091CD
S11300D06300811103C00E94C4010895F8940E9432
S11300E0560210926300789408951F920F920FB6EF
S11300F00F9211248F9381E0809363008F910F906E
S11301000FBE0F901F901895823411F18334E9F1DA
S1130110813409F057C0413061F42AB381E090E0A2
S113012002C0880F991F6A95E2F7822B8ABB80E090
S11301300895411149C02AB381E090E002C0880FBC
S1130140991F6A95E2F7809582238ABB80E008951F
S1130150413061F427B381E090E002C0880F991F19
S11301606A95E2F7822B87BB80E0089541112EC087
S113017027B381E090E002C0880F991F6A95E2F7E7
S11301808095822387BB80E00895413061F424B3D5
S113019081E090E002C0880F991F6A95E2F7822BF4
S11301A084BB80E00895411113C024B381E090E042
S11301B002C0880F991F6A95E2F78095822384BB59
S11301C080E0089581E0089582E0089582E0089532
S11301D082E00895823411F18334E9F1813409F025
S11301E057C0413061F42BB381E090E002C0880F26
S11301F0991F6A95E2F7822B8BBB80E00895411129
S113020049C02BB381E090E002C0880F991F6A9522
S1130210E2F7809582238BBB80E00895413061F43E
S113022028B381E090E002C0880F991F6A95E2F735
S1130230822B88BB80E0089541112EC028B381E051
S113024090E002C0880F991F6A95E2F78095822397
S113025088BB80E00895413061F425B381E090E0EB
S113026002C0880F991F6A95E2F7822B85BB80E054
S11302700895411113C025B381E090E002C0880FB6
S1130280991F6A95E2F78095822385BB80E00895E3
S113029081E0089583E0089583E0089583E008955C
S11302A0823481F08334D1F0813421F52BB381E0A1
S11302B090E002C0880F991F6A95E2F782278BBBF2
S11302C080E0089528B381E090E002C0880F991F70
S11302D06A95E2F7822788BB80E0089525B381E020
S11302E090E002C0880F991F6A95E2F7822785BBC8
S11302F080E0089581E008950E943E000E94670016
S1130300FDCF41E00E948400811181E0089541E025
S11303100E94EA00811181E0089540E00E94EA0011
S1130320811181E008950E945001811181E00895B6
S11303308FB780688FBF85B7826085BF8BB78064B5
S11303408BBF80E0089513BE12BE80E0089562BFA3
S113035083B7856083BF80E0089520E010C008B6AD
S113036000FC04C0909163009923C9F39091630049
S1130370913041F098B7916098BF62BF2F5F281702
S113038070F313BE80E00895CF93DF9360E081E4BF
S11303900E94870160E082E40E948D0162E082E4B1
S11303A00E94870181E0809362006CE00E94A701B3
S11303B06CE084E10E94AD0180916300813009F416
S11303C071C060E081E40E948D0110926200C0E07F
S11303D0D0E00FC061E081E40E94930181E080934A
S11303E060006CE00E94A7016CE082E00E94AD0115
S11303F02196CA30D10524F480916300813051F7ED
S113040080916300813009F44DC01092600061E076
S113041081E40E948D0162E082E40E948D0162E029
S113042081E40E94870160E082E40E94870181E008
S1130430809361006CE00E94A7016CE084E10E945B
S1130440AD0180916300813069F162E081E40E9432
S11304508D0110926100C0E0D0E00FC061E081E442
S11304600E94930181E0809360006CE00E94A701E8
S11304706CE082E00E94AD012196CA30D10524F4DB
S113048080916300813051F780916300813051F095
S113049061E081E40E948D0160E082E40E948D01AC
S11304A01092600080E0DF91CF910895CF93DF93A5
S11304B080916100813099F462E082E40E948D01B0
S11304C060E082E40E948701109263006CE081E0A6
S11304D00E94A7016CE084E10E94AD014EC08091AE
S11304E06200813029F080916000813009F045C0BC
S11304F01092630060E082E40E948D0162E082E475
S11305000E94870160E081E40E948D01C0E0D0E098
S113051011C061E082E40E94930161E081E40E94E1
S113052093016CE081E00E94A7016CE082E00E94EC
S1130530AD012196CA30D10524F480916300813045
S113054041F762E082E40E948D0161E081E40E944F
S11305508D0161E082E40E948D0160E082E40E94EA
S1130560870162E081E40E9487016CE081E00E94DF
S1130570A7016CE084E10E94AD0162E081E40E9485
S11305808D0161E081E40E948D0161E082E40E94BA
S11305908D01C0E0D0E011C061E082E40E949301CB
S11305A061E081E40E9493016CE081E00E94A70174
S11305B06CE082E00E94AD012196CA30D10524F49A
S11305C080916300813041F761E081E40E948D01F4
S11305D061E082E40E948D0160E082E40E948D016A
S11305E060E081E40E94870162E082E40E94870166
S10F05F081E0DF91CF910895F894FFCFD3
S9030000FC
