S0140000544553542050524F4A4543542E7372656399
S11300000C942A000C9475000C943C000C943C0055
S11300100C943C000C943C000C943C000C943C006C
S11300200C943C000C943C000C943C000C943C005C
S11300300C943C000C943C000C943C000C943C004C
S11300400C943C000C943C000C943C000C943C003C
S11300500C943C0011241FBECFE5D8E0DEBFCDBF19
S113006020E0A0E6B0E001C01D92A536B207E1F79A
S11300700E945B010C94D1020C94000062E081E4C4
S11300800E94600160E081E40E94600161E081E41B
S11300900E94600160E082E40E94600161E082E409
S11300A00E94600162E082E40E94600160E081E4F9
S11300B00E94680161E081E40E94680162E081E4D9
S11300C00E9468010E9471010E947B010895809141
S11300D06300811103C00E9499010895F8940E945D
S11300E0290210926300789408951F920F920FB61C
S11300F00F9211248F9381E0809363008F910F906E
S11301000FBE0F901F901895823401F18334C9F10A
S1130110813409F050C0413059F42AB381E090E0B1
S113012002C0880F991F6A95E2F7822B8ABB089553
S1130130411141C02AB381E090E002C0880F991FA9
S11301406A95E2F7809582238ABB0895413059F479
S113015027B381E090E002C0880F991F6A95E2F707
S1130160822B87BB0895411126C027B381E090E01C
S113017002C0880F991F6A95E2F78095822387BB96
S11301800895413059F424B381E090E002C0880F0F
S1130190991F6A95E2F7822B84BB089541110BC025
S11301A024B381E090E002C0880F991F6A95E2F7BA
S11301B08095822384BB0895823401F18334C9F18C
S11301C0813409F050C0413059F42BB381E090E000
S11301D002C0880F991F6A95E2F7822B8BBB0895A2
S11301E0411141C02BB381E090E002C0880F991FF8
S11301F06A95E2F7809582238BBB0895413059F4C8
S113020028B381E090E002C0880F991F6A95E2F755
S1130210822B88BB0895411126C028B381E090E069
S113022002C0880F991F6A95E2F78095822388BBE4
S11302300895413059F425B381E090E002C0880F5D
S1130240991F6A95E2F7822B85BB089541110BC073
S113025025B381E090E002C0880F991F6A95E2F708
S11302608095822385BB0895823479F08334C1F06C
S1130270813401F52BB381E090E002C0880F991F0F
S11302806A95E2F782278BBB089528B381E090E05A
S113029002C0880F991F6A95E2F7822788BB0895E8
S11302A025B381E090E002C0880F991F6A95E2F7B8
S11302B0822785BB08950E943E000E946700FDCFFF
S11302C041E00E948400089541E00E94DC0008950A
S11302D040E00E94DC00089570E090E00E94340148
S11302E008958FB780688FBF85B7826085BF8BB74D
S11302F080648BBF089513BE12BE089562BF83B796
S1130300856083BF089520E010C008B600FC04C0D7
S1130310909163009923C9F390916300913041F067
S113032098B7916098BF62BF2F5F281770F313BE10
S1130330089560E081E40E94640162E082E40E9426
S1130340640181E0809362006CE070E081E090E001
S11303500E947E016CE070E084E190E00E948301E1
S113036080916300813009F46CC060E081E40E94F4
S113037068011092620061E081E40E946C0181E0F6
S1130380809360006CE070E081E090E00E947E0168
S11303906CE070E084E190E00E948301809163004E
S11303A0813009F450C01092600061E081E40E9441
S11303B0680162E082E40E94680162E081E40E94D4
S11303C0640160E082E40E94640181E08093610042
S11303D06CE070E081E090E00E947E016CE070E0EF
S11303E084E190E00E94830180916300813069F18F
S11303F062E081E40E9468011092610061E081E49E
S11304000E946C0181E0809360006CE070E081E008
S113041090E00E947E016CE070E084E190E00E9434
S1130420830180916300813091F061E081E40E9456
S1130430680160E082E40E9468011092600082E03A
S1130440089582E0089581E0089582E0089581E0AE
S11304500895809161008130B9F462E082E40E94E1
S1130460680160E082E40E946401109263006CE021
S113047070E081E090E00E947E016CE070E084E135
S113048090E00E94830157C080916200813029F07E
S113049080916000813009F04EC01092630062E0E8
S11304A082E40E9464016CE070E081E090E00E94CC
S11304B07E016CE070E084E190E00E94830160E0E2
S11304C081E40E94680161E081E40E94680161E0C6
S11304D082E40E946C0161E081E40E946C016CE0A2
S11304E070E081E090E00E947E016CE070E084E1C5
S11304F090E00E94830162E082E40E94680161E06E
S113050081E40E94680161E082E40E94680160E085
S113051082E40E94640162E081E40E9464016CE070
S113052070E081E090E00E947E016CE070E084E184
S113053090E00E94830162E081E40E94680161E02E
S113054081E40E94680161E082E40E94680161E044
S113055082E40E946C0161E081E40E946C016CE021
S113056070E081E090E00E947E016CE070E084E144
S113057090E00E94830160E082E40E94680161E0EF
S113058081E40E94680161E082E40E94680160E005
S113059081E40E94640162E082E40E94640183E0D9
S10905A00895F894FFCF5A
S9030000FC
